:1000000045C000004BC0000049C0000047C00000D0
:1000100045C0000043C0000041C000003FC00000D8
:100020003DC000003BC0000039C0000037C00000E8
:1000300035C0000033C0000031C000002FC00000F8
:100040002DC000002BC0000029C0000027C0000008
:1000500025C0000023C0000021C000001FC0000018
:100060001DC000001BC0000019C0000017C0000028
:1000700015C0000013C0000011C000000FC0000038
:100080000DC000000BC0000009C0000011241FBEFD
:10009000CFEFD0E1DEBFCDBF3DD050C1B1CF909307
:1000A000900089B988E18AB908955F9BFECF8CB131
:1000B000089526B537B5AFEFB0E0A81BB10938D128
:1000C0002FEF30E040E050E002D139BD28BD089567
:1000D00082EA8FBD8AE18EBD80E49CE997BD86BD32
:1000E00087B3806687BB1BBC1ABC19BC18BC0895BB
:1000F000853B08F084EB282F30E0A0EABFE009D16F
:1001000024EB30E040E050E0E2D02053384F3BBDDC
:100110002ABD0895CF93DF93CDB7DEB764970FB6AE
:10012000F894DEBF0FBECDBF8FEF8ABB87BB81BB0C
:1001300084BB1A821982FE01339682E1DF011D928F
:100140008A95E9F7C5DF87E690E0A9DF10E0ADDF2B
:100150008A3019F08D3009F0AEC0E1E0F0E0EC0F2C
:10016000FD1FE10FF11D108280E090E024C0E1E06E
:10017000F0E0EC0FFD1FE80FF91F2081203369F438
:100180004BB321E030E0082E02C0220F331F0A9447
:10019000E2F7209524232BBB0DC0213359F44BB338
:1001A00021E030E0082E02C0220F331F0A94E2F74C
:1001B000242B2BBB019688309105CCF280E090E097
:1001C00026C0FC01389621E030E02C0F3D1FE20FE5
:1001D000F31F2081203369F448B321E030E0082E7A
:1001E00002C0220F331F0A94E2F72095242328BB74
:1001F0000DC0213359F448B321E030E0082E02C08D
:10020000220F331F0A94E2F7242B28BB0196833078
:100210009105BCF28C8590E0C0978130910519F072
:10022000029759F014C085B38E7F85BB85B3826079
:1002300085BB85B38B7F85BB13C085B3816085BBD0
:1002400085B38D7F85BB85B38B7F85BB09C085B3A7
:100250008E7F85BB85B38D7F85BB85B38B7F85BB4B
:100260008D8590E0C09719F0019721F005C080E0DE
:100270003FDF02C08AE53CDF8E8590E0C097813089
:10028000910541F08230910541F0892B49F480E0DD
:1002900010DF08C08CE30DDF05C08AE50ADF02C06D
:1002A00088E707DFFE01319684E1DF011D928A9520
:1002B000E9F710E04CCF133108F049CFE1E0F0E06E
:1002C000EC0FFD1FE10FF11D80831F5F40CFA1E206
:1002D0001A2EAA1BBB1BFD010DC0AA1FBB1FEE1FC0
:1002E000FF1FA217B307E407F50720F0A21BB30B0B
:1002F000E40BF50B661F771F881F991F1A9469F787
:1003000060957095809590959B01AC01BD01CF01E2
:100310000895A29FB001B39FC001A39F700D811DDE
:100320001124911DB29F700D811D1124911D0895FE
:10033000F0DFB7FF0895821B930B0895F894FFCF69
:00000001FF
