:1000000045C000004BC0000049C0000047C00000D0
:1000100045C0000043C0000041C000003FC00000D8
:100020003DC000003BC0000039C0000037C00000E8
:1000300035C0000033C0000031C000002FC00000F8
:100040002DC000002BC0000029C0000027C0000008
:1000500025C0000023C0000021C000001FC0000018
:100060001DC000001BC0000019C0000017C0000028
:1000700015C0000013C0000011C000000FC0000038
:100080000DC000000BC0000009C0000011241FBEFD
:10009000CFEFD0E1DEBFCDBF33D083C0B1CF82EA96
:1000A0008FBD8AE18EBD80E49CE997BD86BD87B394
:1000B000806687BB1BBC1ABC19BC18BC0895853B65
:1000C00008F084EB282F30E0A0EABFE055D024EB05
:1000D00030E040E050E02ED02053384F3BBD2ABDE9
:1000E000089526B537B5AFEFB0E0A81BB10953D0DE
:1000F0002FEF30E040E050E01DD039BD28BD08951D
:10010000CEDF8CE3EEDF80E0DADF2FEF83ED90E3EC
:10011000215080409040E1F700C000008AE5CFDF29
:100120002FEF83ED90E3215080409040E1F700C035
:100130000000E7CFA1E21A2EAA1BBB1BFD010DC0D8
:10014000AA1FBB1FEE1FFF1FA217B307E407F50787
:1001500020F0A21BB30BE40BF50B661F771F881F63
:10016000991F1A9469F760957095809590959B01F9
:10017000AC01BD01CF010895A29FB001B39FC001A2
:10018000A39F700D811D1124911DB29F700D811DC3
:100190001124911D0895F0DFB7FF0895821B930B82
:0601A0000895F894FFCF62
:00000001FF
