S00D00004C45444F4E2E73726563A5
S113000045C000004BC0000049C0000047C00000CC
S113001045C0000043C0000041C000003FC00000D4
S11300203DC000003BC0000039C0000037C00000E4
S113003050C0000058C0000031C000002FC00000B4
S11300402DC000002BC0000029C0000027C0000004
S113005025C0000023C0000021C000001FC0000014
S11300604CC000001BC0000019C0000017C00000F5
S113007015C0000013C0000011C000000FC0000034
S11300800DC000000BC0000009C0000011241FBEF9
S1130090CFEFD0E1DEBFCDBF3AD04CC0B1CF87B3F4
S11300A0806E87BB8FB581608FBD8FB5886A8FBD29
S11300B08EB588608EBD8EB585608EBD87B788612C
S11300C087BFEDE7F0E08081816080831DBC1CBCAC
S11300D008951F920F920FB60F9211240F900FBE26
S11300E00F901F9018951F920F920FB60F92112424
S11300F00F900FBE0F901F9018951F920F920FB67E
S11301000F9211240F900FBE0F901F9018958FEF30
S11301108ABB87BBC4DF8FEF8BBB87E088BB8FEFC5
S113012090E09BBD8ABD99BD88BD90937900809372
S10B01307800F1CFF894FFCF31
S9030000FC
