S0180000657370333255415254436F6E6E6563742E7372656359
S113000045C000004BC0000049C0000047C00000CC
S113001045C0000043C0000041C000003FC00000D4
S11300203DC000003BC0000039C0000037C00000E4
S113003035C0000033C0000031C000002FC00000F4
S11300402DC000002BC0000029C0000027C0000004
S113005025C0000023C0000021C000001FC0000014
S11300601DC000001BC0000019C0000017C0000024
S113007015C0000013C0000011C000000FC0000034
S11300800DC000000BC0000009C0000011241FBEF9
S1130090CFEFD0E1DEBFCDBF1ED050C0B1CF909323
S11300A0900089B988E18AB908955D9BFECF8CB927
S11300B00895CF93DF93EC018881882329F021965A
S11300C0F4DF89918111FCCFDF91CF9108955F9B7B
S11300D0FECF8CB10895CF93DF93CDB7DEB764978D
S11300E00FB6F894DEBF0FBECDBF8FEF8ABB1A8266
S11300F01982FE01339682E1DF011D928A95E9F7A8
S113010087E690E0CCDF10E0E2DF882399F013313A
S113011088F491E0910FE1E0F0E0EC0FFD1FE10FB6
S1130120F11D8083E1E0F0E0EC0FFD1FE90FF11D0C
S11301301082192FCE010196BCDFE6CFF894FFCFD1
S9030000FC
